:03000000020013E8
:10000B000C758CD8758AF032758911D28C75A882D3
:10001B00C293C2947C0075401675410B75440175F3
:10002B0043027B0012005812006512007212007F0F
:10003B0012008C1200991200A61200B31200C31208
:10004B0000D01200DD1200EA1200FA80D7754519B4
:10005B00120107120170D545F722754519120107D8
:10006B00120177D545F72275451912010712017E4A
:10007B00D545F72275451E120107120185D545F7A7
:10008B002275451E12010712018CD545F7227545C5
:10009B001E120107120193D545F72275451E120159
:1000AB000712019AD545F7227545141201A11201C9
:1000BB00071201A8D545F72275451E12010712013B
:1000CB00AFD545F72275451E1201071201B6D5456E
:1000DB00F72275451E1201071201BDD545F7227592
:1000EB00451E1201C41201071201CBD545F722752B
:1000FB0045141201071201D2D545F722BB01051297
:10010B00017080F8BB020512017780F0BB0305126A
:10011B00017E80E8BB040512018580E0BB0505125A
:10012B00018C80D8BB060512019380D0BB0705124A
:10013B00019A80C8BB08051201A880C0BB09051233
:10014B0001AF80B8BB0A051201B680B0BB0B05121C
:10015B0001BD80A8BB0C051201CB80A0BB0D051205
:10016B0001D2809822900326120234229003B712F8
:10017B00023422900448120234229004D912023421
:10018B00229005FA1202342290068B12023422902E
:10019B00071C120234229007AD120234229008562B
:1001AB0012023422900A3712023422900AF81202F9
:1001BB003422900C1912023422900CDA12023422DF
:1001CB00900D8312023422900EA4120234220BBB28
:1001DB000E027B001202C03090F42215401540E550
:1001EB0040B4020050037540C6E54075F00284F53B
:1001FB0041C385414774649547F5471202C4309259
:10020B00DA2215431543E543B4020050037543C688
:10021B00E54375F00284F544C385445174649551EC
:10022B00F5511202C93091DA22754214AD40D2A7B2
:10023B00D2A33090993092A33091C7D2A41202B7B7
:10024B00C2A47F00758003EF93B49901221202A719
:10025B000FD580F3C2A3C2A7120308D2A7D2A31251
:10026B0002B7ECB54400400AB54300400C7C0002D9
:10027B00028BD295C29602028BC295D29602028B4A
:10028B00BF18C11DEDB54100500EC297BD00A3753F
:10029B007018A3D570FC8091D29780967E0833920C
:1002AB00A0C2A1D2A1DEF7C2A2D2A222C2A5D2A520
:1002BB00C2A6D2A622EB0202CBE5470202CBE55146
:1002CB0090031C75F00A8485F020F52193F531E538
:1002DB002093F5307542197546FAE531B4C00675B1
:1002EB00B0FF0202F38531B0D294120308C2948599
:1002FB0030B0D293120308C293D546DE2285427FDB
:10030B00758DFF758BF6D28E308FFDC28FD57FF03A
:10031B0022C0F9A4B0999282F880902082084104FF
:10032B00108208200410410820821041042082080A
:10033B00410410410410820820041041082082104F
:10034B0041042082084104108208208208200410F6
:10035B0041082082104104208208410410820820A9
:10036B0004104104104108208210410420820841EE
:10037B0004108208200410410820820820821041BA
:10038B0004208208410410820820041041082082B6
:10039B0010410410410420820841041082082004FB
:1003AB0010410820821041042082089971C71CE378
:1003BB008E38C71C718E38E31C71C738E38E71C73A
:1003CB001CE38E38E38E38C71C718E38E31C71C763
:1003DB0038E38E71C71CE38E38C71C71C71C718E36
:1003EB0038E31C71C738E38E71C71CE38E38C71C0A
:1003FB00718E38E38E38E31C71C738E38E71C71CDE
:10040B00E38E38C71C718E38E31C71C71C71C7385B
:10041B00E38E71C71CE38E38C71C718E38E31C71D9
:10042B00C738E38E38E38E71C71CE38E38C71C7157
:10043B008E38E31C71C738E38E71C71C99FBEFBE76
:10044B00F7DF7DEFBEFBDF7DF7BEFBEF7DF7DFFB5D
:10045B00EFBEF7DF7DF7DF7DEFBEFBDF7DF7BEFB8A
:10046B00EF7DF7DFFBEFBEF7DF7DEFBEFBEFBEFBF4
:10047B00DF7DF7BEFBEF7DF7DFFBEFBEF7DF7DEF39
:10048B00BEFBDF7DF7DF7DF7BEFBEF7DF7DFFBEF1D
:10049B00BEF7DF7DEFBEFBDF7DF7BEFBEFBEFBEFF5
:1004AB007DF7DFFBEFBEF7DF7DEFBEFBDF7DF7BE3A
:1004BB00FBEF7DF7DF7DF7DFFBEFBEF7DF7DEFBEF9
:1004CB00FBDF7DF7BEFBEF7DF7DFFBEFBE99FFFF99
:1004DB00FF03E03E07C07C0FC0FC1F81F80FC0FC80
:1004EB0007E07E03E03EFFFFFF07C07C0F80F81F95
:1004FB0081F83F03F01F81F80FC0FC07C07CFFFFA2
:10050B00FF0F80F81F01F03F03F07E07E03F03F081
:10051B001F81F80F80F8FFFFFF1F01F03E03E07E05
:10052B0007E0FC0FC07E07E03F03F01F01F0FFFF69
:10053B00FF3E03E07C07C0FC0FC0F81F81FC0FC01F
:10054B007E07E03E03E0FFFFFF7C07C0F80F80F85B
:10055B001F81F03F03F81F81FC0FC07C07C0FFFF1A
:10056B00FFF80F80F01F01F03F03E07E07F03F0321
:10057B00F81F81F80F80FFFFFFF01F01E03E03E043
:10058B007E07C0FC0FE07E07F03F03F01F01FFFF6B
:10059B00FFE03E03C07C07C0FC0F81F81FC0FC0FBF
:1005AB00E07E07E03E03FFFFFFC07C0780F80F8172
:1005BB00F81F03F03F81F81FC0FC0FC07C07FFFF43
:1005CB00FF80F80F01F01F03F03F07E07E03F03FC1
:1005DB0081F81F80F80FFFFFFF01F01F03E03E07BC
:1005EB00E07E0FC0FC07E07E03F03F01F01F990097
:1005FB000000820820820820C71C71C71C71EFBE47
:10060B00FBEFBEFBFFFFFF00000041041041041095
:10061B00E38E38E38E38F7DF7DF7DF7DFFFFFF00DA
:10062B00000020820820820871C71C71C71CFBEFD9
:10063B00BEFBEFBEFFFFFF000000104104104104A2
:10064B0038E38E38E38E7DF7DF7DF7DFFFFFFF00AA
:10065B0000000820820820821C71C71C71C7BEFBDA
:10066B00EFBEFBEFFFFFFF00000004104104104141
:10067B008E38E38E38E3DF7DF7DF7DF7FFFFFF99E1
:10068B007DF7DF7DF7DFBAEBAEBAEBAED75D75D793
:10069B005D75EFBEFBEFBEFBFBEFBEFBEFBE75D791
:1006AB005D75D75DAEBAEBAEBAEBDF7DF7DF7DF7ED
:1006BB00F7DF7DF7DF7DEBAEBAEBAEBA5D75D75DDD
:1006CB0075D7BEFBEFBEFBEFEFBEFBEFBEFBD75DFF
:1006DB0075D75D75BAEBAEBAEBAE7DF7DF7DF7DFA5
:1006EB00DF7DF7DF7DF7AEBAEBAEBAEB75D75D7595
:1006FB00D75DFBEFBEFBEFBEBEFBEFBEFBEF5D7549
:10070B00D75D75D7EBAEBAEBAEBAF7DF7DF7DF7D12
:10071B00990820821C71C7145145B6DB6DA28A283B
:10072B00E38E3841041041041010410438E38E2845
:10073B00A28A6DB6DB451451C71C71820820820852
:10074B002020820871C71C514514DB6DB68A28A284
:10075B008E38E3041041041041410410E38E38A29B
:10076B008A28B6DB6D1451451C71C70820820820FE
:10077B0082820820C71C714514516DB6DB28A28AF2
:10078B0038E38E1041041041040410418E38E38A83
:10079B0028A2DB6DB651451471C71C20820820823C
:1007AB000899000000FFFFFFFFFFFFFFFFFFFFFFA8
:1007BB00FFFFFFFFFFFFFFFFFFFF410410000000E3
:1007CB00FFFFFFFFFFFFFFFFFFFFFFFFFFFFFFFF2E
:1007DB00FFFF410410410410000000FFFFFFFFFF6B
:1007EB00FFFFFFFFFFFFFFFFFFFFA28A284104105F
:1007FB00410410000000FFFFFFFFFFFFFFFFFFFFA3
:10080B00FFFFA28A28A28A2841041041041000008D
:10081B0000FFFFFFFFFFFFFFFFFF145145A28A28D8
:10082B00A28A28410410410410000000FFFFFFFFC3
:10083B00FFFF145145145145A28A28A28A2841046E
:10084B0010410410000000FFFFFF99082080145195
:10085B0045145145A28A28A28A284104104104104C
:10086B00000000082080082080145145145145A237
:10087B008A28A28A28410410410410000000082095
:10088B0080082080145145145145A28A28A28A2839
:10089B004104100000000000000820800820801494
:1008AB005145145145A28A28A28A280820820000AB
:1008BB000000000008208008208014514514514589
:1008CB00A28A28082082082082000000000000086D
:1008DB00208008208014514514514514514508209F
:1008EB008208208200000000000008208008208081
:1008FB00145145145145145145082082082082009B
:10090B000000000000082080082080A28A281451D3
:10091B004514514508208208208200000000000089
:10092B00082080A28A28A28A281451451451450810
:10093B002082082082000000000000410410A28ADF
:10094B0028A28A2814514514514508208208208278
:10095B00000000410410410410A28A28A28A281426
:10096B0051451451450820820820820000004104A3
:10097B0010410410A28A28A28A281451451451450B
:10098B00082082000000000000410410410410A266
:10099B008A28A28A2814514514514541041000009D
:1009AB0000000000410410410410A28A28A28A28EA
:1009BB001451454104104104100000000000004197
:1009CB000410410410A28A28A28A28A28A28410472
:1009DB0010410410000000000000410410410410FD
:1009EB00A28A28A28A28A28A284104104104100056
:1009FB000000000000410410410410145145A28A6C
:100A0B0028A28A28410410410410000000000000B5
:100A1B00410410145145145145A28A28A28A284139
:100A2B000410410410000000000000997F7F7F3FFD
:100A3B003F3F1F1F1F0F0F0F070707030303010183
:100A4B0001000000FEFEFE7E7E7E3E3E3E1E1E1E12
:100A5B000E0E0E060606020202000000FDFDFDFC56
:100A6B00FCFC7C7C7C3C3C3C1C1C1C0C0C0C0404DB
:100A7B0004000000FBFBFBF9F9F9F8F8F87878783B
:100A8B00383838181818080808000000F7F7F7F37B
:100A9B00F3F3F1F1F1F0F0F07070703030301010C2
:100AAB0010000000EFEFEFE7E7E7E3E3E3E1E1E15D
:100ABB00E0E0E0606060202020000000DFDFDFCF9F
:100ACB00CFCFC7C7C7C3C3C3C1C1C1C0C0C04040DC
:100ADB0040000000BFBFBF9F9F9F8F8F8F8787876F
:100AEB0083838381818180808000000099FFBFFB1D
:100AFB00FF8FF83F83F80F80F803803801801800D0
:100B0B008008000000FF7FF7FF1FF17F07F01F0138
:100B1B00F0070070030030010010000000FEFFEF33
:100B2B00FE3FE3FE0FE03E03E00E00E00600600236
:100B3B000020000000FDFFDFFC7FC7FC1FC17C070E
:100B4B00C01C01C00C00C0040040000000FBFFBF34
:100B5B00F8FF8FF83F83F80F803803801801800867
:100B6B000080000000F7FF7FF1FF1FF07F07F01FF1
:100B7B0001700700300300100100000000EFFEFFC2
:100B8B00E3FE3FE0FE0FE03E03E00E0060060020B8
:100B9B000200000000DFFDFFC7FC7FC1FC1FC07C13
:100BAB0007C01C01C00C00400400000000BFFBFF8D
:100BBB008FF8FF83F83F80F80F803803801801808F
:100BCB0008000000007FF7FF1FF1FF07F07F01F027
:100BDB001F007007003003001001000000FFEFFE44
:100BEB003FE3FE0FE0FE03E03E00E00E0060060078
:100BFB002002000000FFDFFD7FC7FC1FC1FC07C008
:100C0B007C01C01C00C00C004004000000990000D7
:100C1B00001111111B1B1B1F1F1F1F1F1F1F1F1F2E
:100C2B00BFBFBFBFBFBF0000002222223636363EF9
:100C3B003E3E3E3E3E3E3E3E7F7F7F7F7F7F0000BF
:100C4B00004444446C6C6C7C7C7C7C7C7C7C7C7C2D
:100C5B00FEFEFEFEFEFE000000888888D8D8D8F87D
:100C6B00F8F8F8F8F8F8F8F8FDFDFDFDFDFD0000CB
:100C7B0000111111B1B1B1F1F1F1F1F1F1F1F1F1AA
:100C8B00FBFBFBFBFBFB000000222222636363E305
:100C9B00E3E3E3E3E3E3E3E3F7F7F7F7F7F7000067
:100CAB0000444444C6C6C6C7C7C7C7C7C7C7C7C71C
:100CBB00EFEFEFEFEFEF0000008888888D8D8D8FC1
:100CCB008F8F8F8F8F8F8F8FDFDFDFDFDFDF997D51
:100CDB00F7DFFFFFFFFFFFFFFFFFFFFFFFFFFFFF41
:100CEB00FFFFFFFFFFFFFF7DF7DF7DF7DFFFFFFF5D
:100CFB00FFFFFFFFFFFFFFFFFFFFFFFFFFFFFF7D7B
:100D0B00F7DF7DF7DF7DF7DFFFFFFFFFFFFFFFFF64
:100D1B00FFFFFFFFFFFFFF7DF7DF7DF7DF7DF7DFD6
:100D2B007DF7DFFFFFFFFFFFFFFFFFFFFFFFFF3839
:100D3B00E38E7DF7DF7DF7DF7DF7DF7DF7DFFFFFED
:100D4B00FFFFFFFFFFFFFF38E38E38E38E7DF7DFFA
:100D5B007DF7DF7DF7DF7DF7DFFFFFFFFFFFFF385D
:100D6B00E38E38E38E38E38E7DF7DF7DF7DF7DF79B
:100D7B00DF7DF7DFFFFFFF9938E38E38E38E38E333
:100D8B008E38E38E7DF7DF7DF7DF7DF7DF7DF7DFD5
:100D9B00FFFFFF38E38E38E38E38E38E38E38E7D2A
:100DAB00F7DF7DF7DF7DF7DF000000FFFFFF38E3A4
:100DBB008E38E38E38E38E38E38E7DF7DF7DF7DFF9
:100DCB00000000AAAAAAFFFFFF38E38E38E38E3893
:100DDB00E38E38E38E7DF7DFFFFFFF555555AAAA4B
:100DEB00AAFFFFFF38E38E38E38E38E38E38E38EAD
:100DFB007DF7DFFFFFFF555555AAAAAAFFFFFF3866
:100E0B00E38E38E38E38E38E7DF7DF7DF7DFFFFF70
:100E1B00FF555555AAAAAAFFFFFF38E38E38E38E7C
:100E2B007DF7DF7DF7DF7DF7DFFFFFFF555555AA18
:100E3B00AAAAFFFFFF38E38E7DF7DF7DF7DF7DF793
:100E4B00DF7DF7DFFFFFFF555555AAAAAAFFFFFF6E
:100E5B0038E38E7DF7DF7DF7DF7DF7DF7DF7DFFF93
:100E6B00FFFF555555AAAAAA38E38E38E38E7DF7B6
:100E7B00DF7DF7DF7DF7DF7DF7DFFFFFFF55555593
:100E8B0038E38E38E38E38E38E7DF7DF7DF7DF7D39
:100E9B00F7DF7DF7DFFFFFFF99E79E79E79E79E7A5
:100EAB009E79E79E79E79E79861861861861861888
:100EBB0061CF3CF3CF3CF3CF3CF3CF3CF3CF3CF3D0
:100ECB000C30C30C30C30C30C39E79E79E79E79E80
:100EDB0079E79E79E79E79E7186186186186186134
:100EEB00863CF3CF3CF3CF3CF3CF3CF3CF3CF3CF7B
:100EFB0030C30C30C30C30C30C79E79E79E79E7975
:100F0B00E79E79E79E79E79E618618618618618670
:100F1B0018F3CF3CF3CF3CF3CF3CF3CF3CF3CF3CB8
:0A0F2B00C30C30C30C30C30C309926
:00000001FF
